:100000000C9467000C9484000C949C020C94840063
:100010000C9484000C9484000C9484000C948C0147
:100020000C9484000C9484000C9484000C945E0165
:100030000C9484000C9484000C9484000C94840030
:100040000C9484000C9484000C9484000C94840020
:100050000C9484000C9484000C9484000C94840010
:100060000C9484000C94840081028C028C028C021B
:100070007E028C028C028C028C028C0284028C0226
:100080008C028C028C028C0287028C028A028C0207
:100090008C028C028C028C028C028C028C028C02F0
:1000A0008C028C028C028C0281028C028C028C02EB
:1000B0007E028C028C028C028C028C0284028C02E6
:1000C0008C028C028C028C0287028C028A02112420
:1000D0001FBECFEFD8E0DEBFCDBF11E0A0E0B1E0A2
:1000E000E4EDF6E002C005900D92AC30B107D9F70F
:1000F00021E0ACE0B1E001C01D92A331B207E1F70D
:100100000E94D2020C9468030C94000087B18160B5
:1001100087B987B1826087B987B1846087B988B1B0
:10012000816088B988B1826088B988B1846088B9F3
:10013000089584B1826084B984B1846084B98AB13D
:1001400080628AB984B1886084B984B1806184B9DD
:100150008AB180648AB984B18E6184B98AB18066BB
:100160008AB9089587B1886087B9089580E480933B
:100170007C0087E880937A000895ECE7F0E09081B6
:10018000907F8F70892B8083EAE7F0E08081806424
:10019000808380917A0086FDFCCF809178009091D9
:1001A0007900089580910101833020F088B1876043
:1001B00088B90895823039F488B1866088B988B1E9
:1001C0008E7F88B90895813039F488B1846088B908
:1001D00088B18C7F88B9089588B1887F88B981E01B
:1001E00080931201089585B18A6085B985B18B7EAF
:1001F00085B988EC88BD87BD089585B1846185B9CE
:1002000085B1857F85B988EC88BD87BD089585B1A6
:100210008A6085B985B18B7E85B988EC88BD87BD3C
:10022000089585B1826485B985B1877E85B988ECEA
:1002300088BD87BD089585B1826085B985B18B7F02
:1002400085B985B1877F85B985B1806185B988EC2D
:1002500087BD88BD089517BC18BC85B1857A85B95E
:1002600008954C9B03C00E94F3000895189B03C09F
:100270000E94FD00089517BC18BC85B18E7485B925
:100280000895E1E8F0E080818860808388E09DE364
:100290009093890080938800AFE6B0E08C918260F3
:1002A0008C9380818560808378940895EFE6F0E0F8
:1002B00080818D7F80831092810008951F920F921C
:1002C0000FB60F9211248F939F938091110181118A
:1002D00004C098B188E0892788B99F918F910F90C9
:1002E0000FBE0F901F90189582E08093B00089EFA9
:1002F0008093B300E0E7F0E080818260808384E057
:100300008093B10078940895E0E7F0E080818D7FDC
:1003100080831092B10008951F920F920FB60F9232
:1003200011242F933F934F935F936F937F938F93FA
:100330009F93AF93BF93EF93FF938091110181112E
:1003400005C080910C01882309F45BC080910D01E8
:1003500090910E01A0910F01B09110010196A11D85
:10036000B11D80930D0190930E01A0930F01B093E6
:10037000100180911101813001F580910D01909162
:100380000E01A0910F01B0911001883E9340A1058C
:10039000B105B8F10E942B0188B1877F88B90E940E
:1003A000560182E08093110110920D0110920E010E
:1003B00010920F011092100124C08091110182301F
:1003C00001F580910D0190910E01A0910F01B09166
:1003D000100188389341A105B10598F010921101E0
:1003E00010920D0110920E0110920F011092100147
:1003F00010920C010E94410188B1877F88B90E9448
:100400008401FF91EF91BF91AF919F918F917F9167
:100410006F915F914F913F912F910F900FBE0F9071
:100420001F90189580910C01811114C081E0809378
:100430000C018093110110920D0110920E01109287
:100440000F011092100181E6809300010E941B01B0
:100450000E94740108951092C50087E68093C4003D
:1004600088E18093C10086E08093C2000895909156
:10047000C00095FFFCCF8093C6000895CF93DF9313
:10048000EC0103C021960E94370288818111FACFC6
:10049000DF91CF910895CF93DF93CDB7DEB72A9741
:1004A0000FB6F894DEBF0FBECDBF4AE0BE016F5F4E
:1004B0007F4F0E943303CE0101960E943E022A968E
:1004C0000FB6F894DEBF0FBECDBFDF91CF91089578
:1004D0008091C000882324F48091C600809300019D
:1004E000E09100018E2F90E0FC01E254F109E3332A
:1004F000F10590F4EC5CFF4F0C942D030E94F30087
:1005000008950E94FD0008950E94070108950E9429
:10051000110108950E942B0108958AB1877F8AB93D
:100520008BB188608BB9E9E6F0E0808188608083D8
:100530008DB382608DBB08951F920F920FB60F92FC
:1005400011242F933F934F935F936F937F938F93D8
:100550009F93AF93BF93EF93FF93809111018230EC
:1005600029F083E0809301010E94D200FF91EF9176
:10057000BF91AF919F918F917F916F915F914F91BB
:100580003F912F910F900FBE0F901F9018950E94D2
:100590002B0182E08093110188B1877F88B90E9486
:1005A0005601F5CF0E9486000E9499000E94B20079
:1005B0000E94B60083EA84BD82E085BD17BC18BCEA
:1005C0000E9441010E942B0285B1817E85B90E9463
:1005D0008D0285E00E94BD00EC0182E091E00E9466
:1005E0003E02CE010E944B0289E091E00E943E0251
:1005F000C538D34020F00E94120281E001C080E0A3
:10060000882389F080910101882369F090910C0181
:10061000911109C090911101911105C081508093F1
:1006200001010E9412020E94D200809111018111E9
:100630000DC00E9431011E9B07C00E9412028091D2
:1006400001018150809301010E9468028091120192
:10065000813009F0BECF0E94C702EE0FFF1F059048
:10066000F491E02D0994BB274A3031F4992322F408
:10067000BDE2909581959F4F0C943F03BB27FB01F2
:100680005527AA27880F991FAA1FA41710F0A41B8B
:1006900083955051B9F7A05DAA3308F0A95DA193E5
:1006A000009779F7B111B1931192CB010C945803D3
:1006B000DC01FC01672F71917723E1F7329704C0C9
:1006C0007C916D9370836291AE17BF07C8F3089554
:0406D000F894FFCFCC
:0C06D40054034C4452203D20000D0A004D
:00000001FF
