:100000000C946B000C9488000C94AE020C94880045
:100010000C9488000C9488000C9488000C948F0138
:100020000C9488000C9488000C9488000C94610156
:100030000C9488000C9488000C9488000C94880020
:100040000C9488000C9488000C9488000C94880010
:100050000C9488000C9488000C9488000C94880000
:100060000C9488000C94880089029E029E029E02D5
:1000700086029E029E029E029E029E028C029E02AA
:100080009E029E029E029E028F029E0292029E028B
:100090009E029E0295029E029E029E029E029E0269
:1000A0009E029E029E029E0289029E029E029E0265
:1000B00086029E029E029E029E029E028C029E026A
:1000C0009E029E029E029E028F029E0292029E024B
:1000D0009E029E02950211241FBECFEFD8E0DEBF24
:1000E000CDBF11E0A0E0B1E0E8EFF6E002C005907E
:1000F0000D92AC30B107D9F721E0ACE0B1E001C01E
:100100001D92A331B207E1F70E94E4020C947A0336
:100110000C94000087B1816087B987B1826087B98C
:1001200087B1846087B988B1816088B988B18260FD
:1001300088B988B1846088B9089584B18E6184B922
:100140008AB180668AB985B1817E85B917BC18BC31
:10015000089587B1886087B9089580E480937C0012
:1001600087E880937A000895ECE7F0E09081907F33
:100170008F70892B8083EAE7F0E080818064808340
:1001800080917A0086FDFCCF809178009091790073
:10019000089580910101833020F088B1876088B98B
:1001A0000895823039F488B1866088B988B18E7F2D
:1001B00088B90895813039F488B1846088B988B1EC
:1001C0008C7F88B9089588B1887F88B981E0809351
:1001D0001201089585B1826085B985B18B7F85B99B
:1001E00085B1886085B985B18F7E85B9089585B15F
:1001F000846085B985B18D7F85B985B1806185B908
:1002000085B1877F85B9089585B1846085B985B149
:100210008D7F85B985B1886085B985B18F7E85B9B7
:10022000089585B1826085B985B18B7F85B985B127
:10023000806185B985B1877F85B9089585B1826070
:1002400085B985B18B7F85B985B1877F85B985B142
:10025000806185B988EC87BD88BD089517BC18BC3E
:1002600085B1817E85B908954C9B03C00E94EA0048
:100270000895189B03C00E94F700089517BC18BC8E
:1002800085B18E7485B90895E1E8F0E080818860D9
:10029000808388E09DE39093890080938800AFE697
:1002A000B0E08C9182608C938081856080837894AB
:1002B0000895EFE6F0E080818D7F808310928100C9
:1002C00008951F920F920FB60F9211248F939F9350
:1002D00080911101811104C098B188E0892788B903
:1002E0009F918F910F900FBE0F901F90189582E0F5
:1002F0008093B00089EF8093B300E0E7F0E0808165
:100300008260808384E08093B10078940895E0E770
:10031000F0E080818D7F80831092B10008951F925C
:100320000F920FB60F9211242F933F934F935F9329
:100330006F937F938F939F93AF93BF93EF93FF93AD
:1003400080911101811105C080910C01882309F46D
:100350005BC080910D0190910E01A0910F01B091B1
:1003600010010196A11DB11D80930D0190930E0106
:10037000A0930F01B093100180911101813001F51C
:1003800080910D0190910E01A0910F01B09110018B
:10039000883E9340A105B105B8F10E942E0188B1B5
:1003A000877F88B90E94590182E0809311011092E1
:1003B0000D0110920E0110920F011092100124C035
:1003C00080911101823001F580910D0190910E0113
:1003D000A0910F01B091100188389341A105B1059A
:1003E00098F01092110110920D0110920E011092CE
:1003F0000F011092100110920C010E94440188B16B
:10040000877F88B90E948701FF91EF91BF91AF91DB
:100410009F918F917F916F915F914F913F912F911C
:100420000F900FBE0F901F90189580910C018111B5
:1004300019C081E080930C018093110110920D018D
:1004400010920E0110920F011092100181E680931C
:1004500000010E941E0180910101815080930101E1
:100460000E94770108951092C50087E68093C4002A
:1004700088E18093C10086E08093C2000895909146
:10048000C00095FFFCCF8093C6000895CF93DF9303
:10049000EC0103C021960E943F0288818111FACFAE
:1004A000DF91CF910895CF93DF93CDB7DEB72A9731
:1004B0000FB6F894DEBF0FBECDBF4AE0BE016F5F3E
:1004C0007F4F0E944503CE0101960E9446022A9664
:1004D0000FB6F894DEBF0FBECDBFDF91CF91089568
:1004E0008091C000882324F48091C600809300018D
:1004F000E09100018E2F90E0FC01E254F109E73316
:10050000F105E0F4EC5CFF4F0C943F030E94EA001D
:1005100008950E94F70008950E94040108950E9422
:10052000110108950E942E010895809111018230D9
:1005300029F083E0809301010E94C90008958AB1E7
:10054000877F8AB98BB188608BB9E9E6F0E080815A
:10055000886080838DB382608DBB08951F920F9257
:100560000FB60F9211242F933F934F935F936F9386
:100570007F938F939F93AF93BF93EF93FF9380915C
:100580001101823029F083E0809301010E94C900AB
:10059000FF91EF91BF91AF919F918F917F916F915B
:1005A0005F914F913F912F910F900FBE0F901F9031
:1005B00018950E942E0182E08093110188B1877FF7
:1005C00088B90E945901F5CF0E948A000E949D00BF
:1005D0000E94A9000E94AD0083EA84BD82E085BD2F
:1005E00017BC18BC0E9444010E94330285B1817E71
:1005F00085B90E949F0285E00E94B400EC0182E070
:1006000091E00E944602CE010E94530289E091E0EF
:100610000E944602C536D10520F00E94150281E0F5
:1006200001C080E0882389F080910101882369F06E
:1006300090910C01911109C090911101911105C087
:100640008150809301010E9415020E94C90080918F
:10065000110181110DC00E9434011E9B07C00E9430
:100660001502809101018150809301010E94700266
:1006700080911201813009F0BECF0E94D902EE0FA5
:10068000FF1F0590F491E02D0994BB274A3031F407
:10069000992322F4BDE2909581959F4F0C945103CC
:1006A000BB27FB015527AA27880F991FAA1FA4174C
:1006B00010F0A41B83955051B9F7A05DAA3308F040
:1006C000A95DA193009779F7B111B1931192CB0174
:1006D0000C946A03DC01FC01672F71917723E1F729
:1006E000329704C07C916D9370836291AE17BF07FF
:0806F000C8F30895F894FFCF50
:0C06F80054034C4452203D20000D0A0029
:00000001FF
